:1000000079EF06F00000000000EF00F000000000B3
:0A0010000000000000000000F3D71C
:10001C000B820BAE18EF00F00368026801680068F1
:08002C000A360232FF0E120039
:080034000AAE029E000E12004C
:10003C000B840BAE29EF00F0010E036E026A016A0D
:0A004C00006A0A360232FF0E1200AD
:0E005600026A016A006A086A036A000E12005C
:100064000CB074EF00F00CA21AEF01F00E6A000E4F
:1000740002648BEF00F0F00E0214D8A456EF00F0E7
:10008400023A01380F0B02260138F00B016E0038DA
:100094000F0B01260038F00B006E08380F0B0026FA
:1000A4000838F00B086E0E84D89002BE6FEF00F093
:1000B40008360036013602360E2A02BE6FEF00F013
:1000C40008360036013602360E2A02BE6FEF00F003
:1000D40008360036013602360E2A0E50036410EF3D
:1000E40001F0035E0BBC08AE15EF01F0D880800E62
:1000F40008640030000E002201220222D8A015EF6D
:1001040001F0023201320032034A1AEF01F015EF16
:1001140001F001C002F000C001F008C000F0086A5C
:10012400000E0E860264C2EF00F0F00E0214D8A492
:10013400AAEF00F0023A01380F0B02260138F00B47
:10014400016E00380F0B01260038F00B006E0E8490
:10015400D89002BE6FEF00F00036013602360E2A48
:1001640002BE6FEF00F00036013602360E2A02BEE0
:100174006FEF00F00036013602360E2A6FEF00F002
:1001840001C002F000C001F0006A000E0E960E8855
:100194000264EFEF00F0F00E0214D8A4DAEF00F0DE
:1001A400023A01380F0B02260138F00B016E0E845F
:1001B400D89002BE6FEF00F0013602360E2A02BE5E
:1001C4006FEF00F0013602360E2A02BE6FEF00F028
:1001D400013602360E2A6FEF00F001C002F0016A08
:1001E400000E0E8602641FEF01F0F00E0214D8A474
:1001F400FEEF00F0023A0E84D89002BE6FEF00F0DA
:1002040002360E2A02BE6FEF00F002360E2A02BE3C
:100214006FEF00F002360E2A6FEF00F0010E0C6E45
:100224000BDF22EF01F0020E0C6E02DF22EF01F071
:10023400040E0C6EF1DE22EF01F0080E0C6E09DFE5
:020244001200A6
:100246000B800BAE2FEF01F0026A0AAEFF0E026EB4
:0C025600016E006E0A360232FF0E12002C
:0C0262000E0E0D6E0D2EFED700001200D7
:08026E000B6A0B86FF0E120063
:100276000C6A0E6A0250D8A454EF01F001C002F0D5
:1002860000C001F0006A0E860250D8A454EF01F0B7
:1002960001C002F0016A0E960E880250D8B466EFCD
:1002A60001F00E50035ED8A4D8A06BEF01F0D890F1
:1002B60002BE70EF01F0003601360236032E5BEF08
:1002C60001F06BEF01F0010E0C6EC2DE73EF01F070
:1002D600020E0C6EB0DE73EF01F0040E0C6EA7DE9C
:0202E600120004
:1002E800025006180E6E086A096A0B6A0350076402
:1002F80067EF02F006500A6E068E028E03500B6EF0
:100308000750036E000E0B64B7EF01F00B50075E49
:10031800D8B458EF02F0070E076426EF02F0075E24
:1003280000C008F001C000F002C001F0026A074EE8
:1003380058EF02F00764FBEF01F0075E00C008F019
:1003480001C000F0016A074E58EF02F00764D9EFC8
:1003580001F0075E00C008F0006A074E58EF02F08F
:100368000764C0EF01F00AC002F005C001F004C044
:1003780000F0086A81EF03F0030E0764CBEF01F089
:10038800075E08380F0B086E074E58EF02F0D8903A
:100398000832074E58EF02F0D8900832074E58EF4F
:1003A80002F0D890083258EF02F0030E0764EAEF23
:1003B80001F0075E08380F0B086E0038F00B0826AE
:1003C80000380F0B006E074E58EF02F0D89000323D
:1003D8000832074E58EF02F0D89000320832074E24
:1003E80058EF02F0D8900032083258EF02F0030EAE
:1003F800076412EF02F0075E08380F0B086E00382A
:10040800F00B082600380F0B006E0138F00B0026A1
:1004180001380F0B016E074E58EF02F0D8900132E9
:1004280000320832074E58EF02F0D89001320032FD
:100438000832074E58EF02F0D890013200320832E5
:1004480058EF02F0030E076443EF02F0075E083826
:100458000F0B086E0038F00B082600380F0B006EE3
:100468000138F00B002601380F0B016E0238F00B33
:10047800012602380F0B026E074E58EF02F0D89093
:100488000232013200320832074E58EF02F0D8909B
:100498000232013200320832074E58EF02F0D8908B
:1004A8000232013200320832096A000E0EAE4CEFF9
:1004B80003F0081E001E011E021E082A0022012247
:1004C80002224CEF03F00750D8A46DEF02F081EF41
:1004D80003F0096A02C00AF0028E068E0750035C18
:1004E800076ED8B43FEF03F0070E07640DEF03F073
:1004F800075E0450096E0550046E0650056E066AC4
:10050800074E3FEF03F0070E0764E2EF02F0075EC5
:100518000450096E0550046E056A074E3FEF03F05C
:10052800070E0764C0EF02F0075E0450096E046A04
:10053800074E3FEF03F0070E0764A7EF02F00AC06B
:1005480002F081EF03F0030E0764B2EF02F0075EDA
:1005580009380F0B096E074E3FEF03F0D8900932A8
:10056800074E3FEF03F0D8900932074E3FEF03F0F4
:10057800D89009323FEF03F0030E0764D1EF02F081
:10058800075E09380F0B096E0438F00B092604388A
:100598000F0B046E074E3FEF03F0D8900432093278
:1005A800074E3FEF03F0D89004320932074E3FEF71
:1005B80003F0D890043209323FEF03F0030E0764CA
:1005C800F9EF02F0075E09380F0B096E0438F00BDB
:1005D800092604380F0B046E0538F00B042605387D
:1005E8000F0B056E074E3FEF03F0D890053204322B
:1005F8000932074E3FEF03F0D89005320432093232
:10060800074E3FEF03F0D8900532043209323FEF2E
:1006180003F0030E07642AEF03F0075E09380F0B97
:10062800096E0438F00B092604380F0B046E0538E0
:10063800F00B042605380F0B056E0638F00B05265F
:1006480006380F0B066E074E3FEF03F0D8900632C0
:10065800053204320932074E3FEF03F0D8900632D4
:10066800053204320932074E3FEF03F0D8900632C4
:10067800053204320932086A000E0EAE4CEF03F060
:10068800091E041E051E061E092A0422052206222A
:100698000950082604500022055001220650022263
:1006A8000EBE63EF03F0D8A072EF03F002320132FE
:1006B80000320832033E72EF03F07CEF03F0D8B04B
:1006C80077EF03F0000E081E001E011E021E082A06
:1006D8000022012202220A7E77EF03F0010E0C6E3F
:1006E800BDDC83EF03F0020E0C6EB8DC83EF03F081
:1006F800040E0C6E8FDC83EF03F0000E0C6E1200FC
:06070800067EEEDD12008A
:10070E0000C008F00150006E016A026A036A0B6AAB
:10071E000C6A016A026A036A960E036E0A6A00AEDA
:10072E009FEF03F0081E001E082AD8B4002A0A8E76
:10073E0000C001F008C000F0086A026A95DD1200E0
:10074E000050086E0150006E016A026A036A0B6A5D
:10075E000C6A960E036E0A6A00C001F008C000F023
:08076E00086A026A81DD120035
:100776000450000A12E10550000A0FE10650000A73
:100786000CE10750000A09E1FF0E006EFF0E016E34
:100796007F0E026EFF0E036EA7D0086A096A075025
:1007A600D8B466EF04F00350D8B46AEF04F00250F0
:1007B60006180A6E028E068E0E6A02C008F001C086
:1007C6000CF000C00DF004500D5E0550D8A0053C9D
:1007D6000C5E0650D8A0063C085E086A0C6A0D6AD4
:1007E600D8A0FDEF03F0D890023201320032083271
:1007F600010E0E6E0750035ED8A00AEF04F07E0EBF
:100806000E240326D8B06FEF04F010EF04F07E0E2E
:100816000E240326D8A074EF04F0180E0B6E0D36C6
:100826000C3608360036013602360E360450005EA7
:100836000550D8A0053C015E0650D8A0063C025ED5
:1008460006340E120EA02BEF04F00D8036EF04F0E6
:10085600045000260550D8B0053C01260650D8B0F5
:10086600062802260D900B2E12EF04F05CEF04F022
:10087600D8900036013602360E360450005E05501A
:10088600D8A0053C015E0650D8A0063C025E0634A0
:100896000E10010B0D26D8B00C2AD8B4082AD8A4FD
:1008A6005CEF04F008320C320D32032AD8B46FEF35
:1008B60004F00AAE089E0850026E0C50016E0D50F0
:1008C600006E77EF04F0010ECFDC77EF04F0020E36
:1008D6002BEC00F077EF04F0040E0EEC00F077EF4F
:0A08E60004F0080E1EEC00F01200F2
:1008F0000900F5CFE6FF0006FBE10106F9E1120071
:10090000FF0E166EFF0E176EFF0E186EFF0E196E9D
:10091000C26A151C006E0050C1160F0EC012C08EA8
:04092000C28012007F
:10092400C26A151C006E0050C1160F0EC012C08E94
:100934002EC000F000360090003600900050C21225
:10094400C2808DDCC282C2A201D0FDD7C4CF01F027
:10095400006A00C02FF001C030F0C3500012000E36
:10096400011200C02FF001C030F0C290000E00143C
:10097400026E0150800B036E000E031802E1000E9C
:10098400021802E02F6A306A2FC000F030C001F074
:0209940012004F
:100996000A6A0350D8A40A800750D8A40A820A50CB
:1009A600D8B42EEF05F0030AD8B4E7EF04F00AB086
:1009B600E2EF04F006AE2CEF05F02AEF05F002AEEA
:1009C6002AEF05F02CEF05F00250800B0A6E029E0E
:1009D6000650800B069E0A18D8B4F8EF04F00A50A9
:1009E600D8B42AEF05F02CEF05F00750035CD8B415
:1009F60002EF05F0D8A01EEF05F024EF05F0065033
:100A0600025CD8B40CEF05F0D8A01EEF05F024EF79
:100A160005F00550015CD8B416EF05F0D8A01EEF1E
:100A260005F024EF05F00450005CD8B42EEF05F075
:100A3600D8B024EF05F00A52D8B42CEF05F02AEF0F
:100A460005F00A52D8B42AEF05F02CEF05F0D8804D
:0E0A56001200D8901200D880D884120012002E
:100A64000B6A0C6A0A6A0350D8B467EF05F00A9E51
:100A7400028E860E035E03BE45EF05F0D8B445EF43
:100A840005F06AEF05F0036C080E035CD8A053EF81
:100A940005F0036E0236026A0350D8A4D8905CEFC6
:100AA40005F00350D8B45CEF05F0D8900232032E61
:100AB40057EF05F00BBC02A067EF05F0D8A067EF75
:100AC40005F0022AD8B471EF05F0016A77EF05F05A
:100AD4000B800BAE7BEF05F0016A7BEF05F0010E96
:100AE4000C6E23EC01F07DEF05F0000E0C6E7DEF33
:0C0AF40005F0FF0E0C6E0250006E1200A8
:100B0000086A096A000E0762036405EF06F00250E6
:100B100006180A6E075003267E0ED8A096EF05F041
:100B2000035ED8B00AEF06F09AEF05F0035ED8A096
:100B30000FEF06F0028E068E02C00EF001C00BF021
:100B400000C00DF000500402F4CF0CF0015005027B
:100B5000F4CF00F0F3CF08F00402F3500C26F45069
:100B60000822000E00220D500502F3500C26F4500E
:100B70000822000E002202500402F3500826F4500E
:100B8000002202500502016A000E0122F3500026E5
:100B9000F45001220D500602F3500826F4500022B2
:100BA000026A000E012202220B500602F3500026B8
:100BB000F4500122000E02220E500602F3500126CC
:100BC000F450022202BEEDEF05F008360036013681
:100BD00002360306D8B40FEF06F000EF06F0D88017
:100BE000800E08640030000E002201220222D8A0EC
:100BF00000EF06F0023201320032034A0AEF06F03B
:100C00000AAE029E000E12EF06F0010E2BEC00F071
:100C100012EF06F0020E0EEC00F012EF06F0040EDA
:060C20001EEC00F01200C2
:100C26001ED03F0E836E39D0060E836E36D05B0E15
:100C3600836E33D04F0E836E30D0660E836E2DD00A
:100C46006D0E836E2AD07C0E836E27D0070E836EC0
:100C560024D07F0E836E21D0670E836E1ED02E5059
:100C6600000ADFE02E50010ADFE02E50020ADFE024
:100C76002E50030ADFE02E50040ADFE02E50050A4C
:100C8600DFE02E50060ADFE02E50070ADFE02E5086
:0C0C9600080ADFE02E50090ADFE012001F
:100CA2000B6A0A6A096A00500402F4CF09F0F3CF12
:100CB20008F001500502F4CF0BF0F3CF0AF0005018
:100CC2000502F3500926F4500A22E86A0B22015069
:100CD2000402F3500926F4500A22E86A0B2208C0E3
:100CE20000F009C001F00AC002F00BC003F01200CC
:100CF200E3EC07F0806A816A836A826A9380926A6F
:100D0200956A94940F013981386B3B6B3A6BF7DD2E
:100D12000C0E2E6E06DE00C022F001C023F016DD9E
:100D2200000E046E000E056E000E066E890E076E32
:100D320021DD000E046E000E056E7A0E066E870E21
:100D4200076EDDDE00C01BF001C01CF002C01DF00A
:100D520003C01EF000C004F001C005F002C006F09E
:100D620003C007F0000E006E000E016E200E026E30
:100D7200840E036E0FDE010ED8B0000E006E00521C
:100D820002E0828401D082941BC000F01CC001F0FA
:100D92001DC002F01EC003F0000E046E000E056EB0
:100DA200200E066E820E076EAADE00C02AF001C077
:100DB2002BF002C02CF003C02DF02AC01BF02BC078
:100DC2001CF02CC01DF02DC01EF0000E046E000E93
:100DD200056E7A0E066E880E076E2AC000F02BC0D2
:100DE20001F02CC002F02DC003F0C4DC3ADE00C0DA
:100DF20029F029C021F0000E046E000E056E480E87
:100E0200066E850E076E2AC000F02BC001F02CC0C2
:100E120002F02DC003F0AEDC00C024F001C025F0CA
:100E220002C026F003C027F00A0E2902F3CF00F019
:100E3200F4CF01F06BDC00C004F001C005F002C089
:100E420006F003C007F024C000F025C001F026C060
:100E520002F027C003F057DC04DE00C028F028C0EF
:100E620020F0000E046E000E056E200E066E820E3D
:100E7200076E2AC000F02BC001F02CC002F02DC07A
:100E820003F078DC00C024F001C025F002C026F097
:100E920003C027F0640E2902F3CF02F0F4CF03F06F
:100EA2000A0E2802F3CF00F0F4CF01F00250002620
:100EB200035001222BDC00C004F001C005F002C087
:100EC20006F003C007F024C000F025C001F026C0E0
:100ED20002F027C003F017DCC4DD00C024F024C0F8
:100EE2001AF029C000F0000E016EE80E046E030E27
:100EF200056ED6DE640E2802F3CF02F0F4CF03F0C3
:100F020000500226015003220A0E2402F3CF00F001
:100F1200F4CF01F0025000260350012287EC03F0C7
:100F220000C004F001C005F002C006F003C007F0E3
:100F32002AC000F02BC001F02CC002F02DC003F03B
:100F420084EC03F08EDD00C01FF0070E896E29C00D
:100F52002EF068DE1A0E0C6EF80E0D6E0D2EFED7F8
:100F62000C2EFCD700000B0E896E20C02EF05ADE2C
:100F72001A0E0C6EF80E0D6E0D2EFED70C2EFCD72F
:100F820000000D0E896E1AC02EF04CDE800E8326F4
:100F92001A0E0C6EF80E0D6E0D2EFED70C2EFCD70F
:100FA20000000E0E896E1FC02EF03CDE1A0E0C6E73
:100FB200F80E0D6E0D2EFED70C2EFCD70000A8D613
:020FC200FFD757
:100FC60010EE15F0010E006E010E016EC40EF66EE7
:0E0FD6000F0EF76E000EF86E78EC04F01200AD
:010FC4000F1D
:020000040030CA
:0D000100231F3CFFBF81FF0FC00FE00F4029
:00000001FF
